:100000000C941F010C943C010C943C010C943C0199
:100010000C943C010C943C010C943C010C943C016C
:100020000C943C010C943C010C94E51B0C94B81C02
:100030000C9421170C943C010C943C010C943C0151
:100040000C943C010C943C010C943C010C943C013C
:100050000C943C010C9499170C943C010C943C01B9
:100060000C943C010C943C010C943C010C943C011C
:100070000C943C010C943C010C943C010C943C010C
:100080000C943C010C943C010C943C010C943C01FC
:100090000C943C010C943C010C943C010C943C01EC
:1000A0000C943C010C943C010C943C0104000500B0
:1000B00006000700080009000A000B000C001203EC
:1000C0006200720075006E006F003300780033002C
:1000D00000001E034200720075006E006F004D00AC
:1000E0006F0072006100730074006F006E006900A1
:1000F00000000403090409023B00020100A0FA0900
:100100000400000103010100092111010001224442
:100110000007058103080001090401000103000034
:100120000009211101000122B60007058203200009
:10013000011201000200000008EDFE0000000101B4
:1001400002000105010902A10185020901A10005C2
:100150000919012908150025019508750181020575
:1001600001093009311581257F950275088106093D
:10017000381581257F950175088106050C0A38021E
:100180001581257F950175088106C0C0050109808C
:10019000A101850319012AB700150126B7009501B1
:1001A00075108100C0050C0901A101850419012AFF
:1001B000A002150126A002950175108100C005015D
:1001C0000906A1018506050719E029E715002501A3
:1001D0009508750181020507190029EF1500250111
:1001E00095F075018102050819012905950575012C
:1001F0009102950175039101C005010906A1010550
:100200000719E029E7150025019508750181029578
:1002100001750881010507190029FF150026FF0057
:1002200095067508810005081901290515002501A5
:10023000950575019102950175039101C000112486
:100240001FBECFEFDAE0DEBFCDBF11E0A0E0B1E02E
:10025000EEE0FFE302C005900D92AC38B107D9F78C
:1002600022E0ACE8B1E001C01D92A038B207E1F78E
:100270000E94A5100C94331F0C940000811113C030
:10028000633088F4433078F470E0FB01EE0FFF1F19
:10029000E60FF71FE40FF11DEE0FFF1FE455FF4FB0
:1002A00085919491089581E090E008950E943E0127
:1002B000089581E0089581E008950E94590108950C
:1002C00081E0089581E0089581E008950E9464012D
:1002D0000895089508950E94690108950895089564
:1002E000A6E0B0E0E6E7F1E00C948F1E49835A8364
:1002F0009E833091930189819A8131111AC03E8188
:10030000311599F0211589F00E945D07182F682F8B
:1003100089819A810E94340769817A81812F0E94A4
:10032000590E2696E3E00C94AB1E0E944807182F46
:10033000F3CF0E945D0769817A81F1CFFC01262FFE
:100340004081518162817381848195810E94700115
:100350000895CF93DF93D82FC92F61E00E949E01AB
:100360006D2F7C2F0E945B01811549F061E08D2F7C
:100370009C2F0E949E016D2F7C2F0E945D01DF91BA
:10038000CF9108950F931F93CF93DF93D82FC92F49
:1003900060E00E949E018C016D2F7C2F0E946A01FB
:1003A0006D2F7C2FC8010E946B01DF91CF911F91AF
:1003B0000F91089521E030E0A90102C0440F551FBC
:1003C0008A95E2F7CA010E9456060895CF93C82F76
:1003D00081E090E00C2E02C0880F991F0A94E2F78A
:1003E0000E94BA0B8C2F0E94DA01CF91089581E010
:1003F000089581E008950E94F7010895CF93C82FD2
:100400000E9400068C2F0E94F9018C2F0E94FB0194
:100410002FEF84E39CE0215080409040E1F700C042
:100420000000CF91089581E00E94FE010E94BD1757
:10043000089580E00E94FE010E94CE1708950F9358
:100440001F93CF93DF938C0161E00E949E01EC012A
:10045000B8010E946201811509F442C0B801CE01C1
:100460000E9466018115E1F1B801CE010E94951448
:100470008115B1F1B801CE010E94EA10811581F118
:10048000B801CE010E94BF10811551F1B801CE0113
:100490000E945C0F811521F1F8018581811581F0A1
:1004A000CA35FCE7DF0739F178F4C130ECE7DE0745
:1004B000F9F0C330FCE7DF07C9F0C115DC4771F084
:1004C000C8010E9460010DC0CB35ECE7DE07B1F03A
:1004D000CC35DC47A9F70E948C0BF2CF0E941302A7
:1004E00080E0DF91CF911F910F9108950E949D0BA5
:1004F0000E941902F5CF0E94950BE2CF0E94990B42
:10050000DFCF0E946E010E94F4160E94A50208959A
:100510000E94A9020E946F010E94F916089581E0CD
:1005200008950895CF93DF93D82F0E948F02C82F8C
:10053000811519F08D2F0E9491028C2FDF91CF91A0
:10054000089508950E949202089580E00E94A202F8
:1005500008950E94DC140E94A2020895CF930E9485
:10056000DC14C82F80918E018C1779F0C0938E0116
:100570000E948D1760938F01709390018093910179
:10058000909392018C2F0E94A202CF910895ADE02A
:10059000B0E0EDECF2E00C94901E488759876A8732
:1005A0007B878C879D8791110E94980A1F8286E025
:1005B000FE013896DE01119601900D928A95E1F7C1
:1005C0008D8181110DC029813A814B815C816D81C2
:1005D0007E818F810E94E2092D96E2E00C94AC1E90
:1005E000CE0101960E94A9018111EDCFF5CFFC014A
:1005F0008481813021F4808191810E948F07089548
:10060000611529F00E9450120E94111308950E9452
:100610009912FACFCF93C82F811599F08CEF8C0FD8
:10062000813A88F48C2F0E948015811529F08C2F37
:100630000E9429160E942E0B8C2F0E940F160E94DA
:100640002E0BCF91089580E28C0F883048F4C7704C
:1006500081E001C0880FCA95EAF70E94790AEFCFBE
:100660008BE58C0F833038F42C2F2452330BC901C7
:100670000E941215E6CFE8E5EC0FEB3150F4F0E004
:10068000EE0FFF1FE65EFE4F808191810E943815BC
:10069000D8CF83E38C0F8331A0F661E08C2F0E94CA
:1006A0000003CFCF811581F19CEF980F913A28F488
:1006B0000E9429160E942E0B089590E2980F983000
:1006C00050F4877091E001C0990F8A95EAF7892F5D
:1006D0000E947F0AEFCF9BE5980F933028F480E0CB
:1006E00090E00E941215089598E5980F9B3128F428
:1006F00080E090E00E943815089593E3980F9331BD
:1007000018F460E00E94000308950F931F93CF93A5
:10071000C82F8B010E940A030115110539F48C2F93
:100720000E945203CF911F910F9108958FE99FE08E
:100730000197F1F700C0000001501109EDCF60E50D
:1007400070E0893311F060E070E00E948503089545
:10075000811521F00E94790A0E942E0B08958115BF
:1007600021F00E947F0A0E942E0B0895A0E0B0E0C5
:10077000ECEBF3E00C948A1E6C01D62FC72FFC0122
:100780001581068102950F700E946E0AE82E811570
:10079000F9F0E12E1115E1F08C2F807F803461F0AB
:1007A00080E28D0F8830F0F08C2F807E803221F433
:1007B000D230C0F00115B1F08091680282FF12C002
:1007C00082E00E945F0B0E946E0A91E0E82EE9260B
:1007D000EC2FE295EF70C03CB0F5F0E0EB5CF04E32
:1007E0000C947A1EE12CF4CF0C2F0F70C03110F056
:1007F0000295007F111599F0011559F080E28D0FD7
:10080000883010F0D11107C0802F0E94790A0E9411
:100810002E0B8D2F4EC0802F0E948A0AF8CF8D2F6D
:100820000E945203011579F080E28D0F883010F09C
:10083000D11104C0802F0E947F0A03C0802F0E9424
:10084000900A0E942E0BE11409F4CBC00E946A0AA0
:1008500080FDC7C0F60115820E94640A0E949206BC
:10086000C6010E94C7050E94640A0E94A206B9C080
:10087000FC2FFF70FF2EC07FC03219F0F29480EF82
:10088000F822D11541F0D130C9F1111509F443C056
:100890000115E9F0BECF8091680282FD14C01115E8
:1008A00059F0F11429F08F2D0E94790A0E942E0B25
:1008B00080E00E940A03C7CF80E00E945203F11437
:1008C00011F28F2DB8CF111569F0011104C08F2DD1
:1008D0000E94A803B8CF013009F0B5CF8F2D0E9438
:1008E000B00AB1CF0111AFCF8F2D0E94AF038F2D72
:1008F0000E94BC0A8F2D0E949F0AA5CF111521F0DE
:10090000063008F0A0CFE3CF053008F09CCF8F2D44
:100910000E94AF0398CF0115D1F3D93349F42FEFDB
:1009200087EE93E0215080409040E1F700C0000046
:100930008D2F0E94520387CF8C2F869586958370CA
:10094000811569F0813009F07ECF8D2F9C2F937037
:10095000111102C080E090E00E94381574CF8D2FF5
:100960009C2F9370111102C080E090E00E9412153C
:100970006ACF612F8D2F0E94000365CF8C2F83706B
:1009800081113DC0111129C04D2F429546954770E8
:10099000440F440F2D2F2F7030E0042E02C0220F81
:1009A000331F0A94E2F780E090E0D4FF09C08FE0A3
:1009B00090E002C0880F991F4A95E2F780959095C4
:1009C000C695C695C370822B932BC23091F0C3306D
:1009D00099F0C13059F00E9462060E94DC140E9416
:1009E000A202CDB7DEB7E8E00C94A61E0E9459061D
:1009F000F4CF0E946B06F1CF0E945606EECF111580
:100A000061F1C0FFEACF4D2F429546954770440FE4
:100A1000440F2D2F2F7030E0042E02C0220F331F01
:100A20000A94E2F780E090E0D4FF09C08FE090E004
:100A300002C0880F991F4A95E2F780959095C69558
:100A4000C695C370822B932BC23071F0C33079F0FE
:100A5000C13039F00E94CD06C0CF823008F4BDCF3E
:100A6000D2CF0E94C406B9CF0E94D606B6CF0E944C
:100A70007A06B3CFCF70111539F08C2F0E949206F1
:100A80008D2F0E94A803A9CF8D2F0E94AF038C2F1A
:100A90000E94A206A2CFD23F41F170F4D03FC9F02C
:100AA000D13F91F0111509F446C0011509F440C079
:100AB0008D2F0E940A0391CFD33FF1F0D43F91F7DD
:100AC0008091680282FD22C08C2F8F71111501F375
:100AD00010C0111541F0053008F07FCF8C2F8F71B9
:100AE0000E94B4067ACF0630F7CF8C2F8F71111188
:100AF000CFCF0E94920671CF111529F08C2F8F71E4
:100B00000E9486066ACF0E94810667CF111531F0D8
:100B100063E08C2F8F710E94400B5FCF81E00E94B9
:100B20005F0B023008F459CF82E00E945F0B55CF73
:100B30008C2F8F71DECF011579F0D93349F4EFEFA7
:100B4000F7EE23E0E150F0402040E1F700C0000064
:100B50008D2F0E94520341CF8C2F8F7199CF0F930D
:100B60001F93CF93DF93EC01688179818D810E947F
:100B70009C078C010E94DF060E945506B801CE0139
:100B80000E94B603DF91CF911F910F910895CF93EB
:100B9000DF93EC018C81811599F0CE010E941F0238
:100BA000811111C00E946E0A811551F08D8181154D
:100BB00039F08091680282FF03C082E00E945F0BDF
:100BC000DF91CF910895CE010E94AF05CE010E9422
:100BD000C201F6CF80E090E00E94121580E090E024
:100BE0000E9438150E94980A0E942E0B0E942E1314
:100BF0000E94111308950E9443160E94EA05089569
:100C00000E94870A0E94FB050895282F92959F70E5
:100C1000963099F060F4925F9F70923030F4203FEC
:100C2000B1F038F481E0283E38F080E008959A5F12
:100C3000F3CF81E0243FC9F7089591E0813F09F0A7
:100C400090E081E0283E08F080E0892B089581E063
:100C50000895FC018481811539F0808191810E9481
:100C60008F070E940506089580E00895A6E0B0E091
:100C7000ECE3F6E00C94901E2696E2E00C94AC1E99
:100C8000A7E0B0E0E6E4F6E00C94901E2796E2E0E0
:100C90000C94AC1E08950E944A0608950E944B06CB
:100CA00090939F0180939E01089508950E944E069F
:100CB000089520919E0130919F01822B932B0E94D9
:100CC0004E06089520919E0130919F018223932327
:100CD0000E944E06089520919E0130919F01822727
:100CE00093270E944E0608950E944A0608950E9486
:100CF000740608950E94770690939D0180939C014D
:100D0000089580E090E00E947A06089521E030E0A6
:100D1000A90102C0440F551F8A95E2F7CA010E943B
:100D20007A06089521E030E002C0220F331F8A9531
:100D3000E2F780919C0190919D01822B932B0E9460
:100D40007A06089521E030E002C0220F331F8A9511
:100D5000E2F72095309580919C0190919D0182232E
:100D600093230E947A06089521E030E002C0220F0A
:100D7000331F8A95E2F780919C0190919D01822713
:100D800093270E947A06089520919C0130919D013D
:100D9000822B932B0E947A06089520919C0130911A
:100DA0009D01822393230E947A06089520919C013D
:100DB00030919D01822793270E947A060895089515
:100DC0009B01677091E001C0990F6A95EAF763E0B3
:100DD000369527956A95E1F7220F331F220F331FAF
:100DE000FA01E20FF31F40E050E0682F70E08191BC
:100DF000DF019B01042E02C0369527950A94E2F785
:100E0000217021952827292328272E934F5F5F4F94
:100E10004430510561F708959C01982F977083E045
:100E2000369527958A95E1F7220F331F220F331F3E
:100E3000FB01E20FF31F40E050E080E0219130E041
:100E4000092E02C0369527950A94E2F721703327C0
:100E5000042E01C0220F0A94EAF7822B4F5F5F4FE6
:100E60004430510559F70895482F862F933078F470
:100E7000433068F4292F30E0B901660F771F620F05
:100E8000731F640F711D44E951E00E94E00608954C
:100E9000482F933080F4833070F4292F30E0C9015B
:100EA000880F991F820F931F64E971E0840F911DD1
:100EB0000E940C07089580E00895A0E0B0E0E3E60A
:100EC000F7E00C94891E8C01E0909C01F0909D014C
:100ED00080919E0190919F01E82AF92ACFE0D0E00D
:100EE000CC24C394D12CC6010C2E02C0880F991FAC
:100EF0000A94E2F78E219F21892B49F4219798F7D4
:100F0000B12C8B2DCDB7DEB7E9E00C94A51EBC2E1D
:100F1000B8018C2F0E94650E019781F3F2CFCF9319
:100F2000DF93D82FC92F0E945D076D2F7C2F0E9461
:100F3000650EDF91CF9108951F93CF93DF93162F06
:100F4000D72F90919301911541F0862F972F0E94F2
:100F50008F07DF91CF911F910895811581F0862F22
:100F6000972F0E945D07C82F682F812F9D2F0E9409
:100F70003407612F7D2F8C2F0E94650EEACF862FBC
:100F8000972F0E944807C82FF4CF0F931F93CF933A
:100F9000E091A001C7E08091A1018E1304C0CF9120
:100FA0001F910F9108950E2F10E0CE9FF001112494
:100FB000EE55FE4F208131814281538164817581DC
:100FC00086810E944006F8013196E770E4CF2091B7
:100FD000DA013091DB014091DC015091DD0160913B
:100FE000DE017091DF018091E0010E9440060895CA
:100FF0008091E001803178F48091DF01811559F012
:10100000E091A0012091A1013091DB014091DA0132
:1010100057E02E1301C008956E2F70E05E9FF0011F
:101020001124DF01AE55BE4F14968C911497811593
:1010300061F111968C911197831327C08C918413C1
:1010400024C015968C91159781111FC012968D9111
:101050009C91A091DC01B091DD018A1B9B0B883C27
:10106000910598F48091E0018F7080618093E00198
:10107000E855FE4F80818F70806180838AED91E01A
:101080000E94C7050E94C5070895FB013196E770CD
:10109000C0CFE091A0019091A10127E0E91302C027
:1010A00080E00895AE2FB0E02E9FF0011124EE55A0
:1010B000FE4F3181361306C03081381303C03581AD
:1010C000341304C0FD013196E770E8CF81E0089544
:1010D0008F929F92AF92BF92DF92EF92FF920F9307
:1010E0001F93CF93DF93CDB7DEB72D970FB6F8944C
:1010F000DEBF0FBECDBF8C0186E0F801DE01189681
:1011000001900D928A95E1F7F801F58084819AEDBE
:10111000892E91E0992E9091DE0191111BC08115CD
:1011200009F4FFC0F11409F440C1C8010E94290666
:10113000811509F43AC187E0F801D40101900D92BC
:101140008A95E1F7C4010E94F7020E94F8070E9405
:10115000E707E7C0E080A280B380D090DF01209154
:10116000DC013091DD01A501421B530BD11409F4C0
:10117000DBC0483C510508F0A6C0811509F4D1C078
:101180009091DB0191808091E001803108F06BC08B
:10119000991228C09091DA019E1124C0F1105DC00F
:1011A0008F7080618093E0010E94E7078AED91E0F3
:1011B0000E94C7058091E001F8018683F12C8F2DF4
:1011C0002D960FB6F894DEBF0FBECDBFDF91CF9145
:1011D0001F910F91FF90EF90DF90BF90AF909F9085
:1011E0008F900895F11039C040E0692D8E2D0E9436
:1011F000490840E0692D8E2D0E944908F82E811182
:10120000DDCF888599850E948F07292F22952F7021
:10121000903450F49F70223080F0911599F0F801CD
:101220009681903178F4CBCF2A5F2F70223078F0FE
:10123000C8010E94C705FD2CC2CF911519F0811578
:1012400009F4BDCF805E883008F4B9CFF1CF803F7C
:1012500008F4B5CF815F8330F7CF8091E0018160E2
:101260008093E001ABCF991207C09091DA019E11F3
:1012700003C0F11409F479C0C8010E942906811540
:1012800009F493C0F11409F490C08091E001803218
:1012900088F02091DA013091DB013A832983BC8206
:1012A000AB829091DE019D831E828F83CE010196D9
:1012B0000E94C70587E0F801AAEDB1E001900D9208
:1012C0008A95E1F742CF9091E0019031A0F44885F2
:1012D00059856A857B858C859D850E9436068AEDB9
:1012E00091E00E94C70587E0F40111928A95E9F721
:1012F0000E94E70763CF8115A1F02091DB01818176
:101300002813BACF8091DA018E11B6CFF110B4CF85
:101310009683C8010E94C70587E0F40111928A955F
:10132000E9F7FF24F3944BCF483C510508F041C046
:101330008115B9F3F114C9F19091DB018181981302
:101340002AC08091DA018E1126C08091E00180FDD3
:1013500019C08031B8F08683807F803F39F0868164
:10136000982F907F905F8F70892B8683C8010E9491
:10137000C70587E0F801AAEDB1E001900D928A95CA
:10138000E1F7E5CE87E0F801AAEDB1E001900D921A
:101390008A95E1F7C6CFC8010E94290681118ACF3C
:1013A0008091E00181608093E001C8010E94C7053F
:1013B000B8CF488559856A857B858C859D850E9437
:1013C000360691CFAEE0B0E0E8EEF9E00C948F1E67
:1013D000288739874A875B876C877D878E87CE0110
:1013E00008960E9468086C858115A9F0611541F086
:1013F000288539854A855B857D858E850E944006D6
:1014000017E08091A0019091A10189133AC02E9616
:10141000E3E00C94AB1E87E0FE013896DE011196E6
:1014200001900D928A95E1F7611551F3A091A10108
:101430008A2F90E00196877099272091A0012817A4
:10144000190689F097E09A9FD0011124AE55BE4F3E
:10145000FE01319601900D929A95E1F78093A101DA
:101460000E94C507CDCF0E9400061092A1011092E4
:10147000A00187E0EAEDF1E0DF011D928A95E9F72E
:10148000BFCF189FC00111248E559E4F0E9468083F
:10149000811509F4BCCFE091A0011E9FF001112439
:1014A000EE55FE4F208131814281538164817581E7
:1014B00086810E9440068091A00190E0019687708D
:1014C00099278093A0019DCF8091090286958695EA
:1014D0008695089580910902877008959091090278
:1014E000977081E0911101C080E0089580913502EC
:1014F000089590913502982B909335020895982F76
:101500009095809135028923809335020895109239
:101510003502089590913402982B909334020895E7
:10152000982F9095809134028923809334020895F6
:1015300010923402089508950E949B0A0895909194
:101540000A02292F2823211531F0809589238093C1
:101550000A020E949C0A089508950E94AC0A089508
:1015600090910B02292F2823281729F0982B90936C
:101570000B020E94AD0A089590910B02292F282397
:10158000211531F08095892380930B020E94AD0ACA
:10159000089580910B02811529F010920B0280E0D2
:1015A0000E94AD0A0895CF93C09135028091340214
:1015B000C82B80910B02811531F0C82B0E945E155B
:1015C00081110E94C90A8C2FCF910895CF93DF9388
:1015D000C0910201D09103010E94D30A8883C09177
:1015E0000201D091030148E050E061E072E0CE01D9
:1015F0000E94CB1E892B59F088E0FE01A1E0B2E0E9
:1016000001900D928A95E1F7CE010E94E914DF91D5
:10161000CF910895CF93DF93C0910001D091010144
:101620000E94D30A8983C0910001D091010140E258
:1016300050E061EE71E0CE010E94CB1E892B59F083
:1016400080E2FE01A1EEB1E001900D928A95E1F7F2
:10165000CE010E94F414DF91CF9108950E94CF161D
:10166000813039F48091670287FF03C00E940A0B22
:1016700008950E94E60A089508950E943C0B08957B
:10168000962F2091680222FF11C0682F660F660F07
:10169000660F692B609309020E94920680910902ED
:1016A0008695869586950E943D0B08950E94920628
:1016B00008951092090280E00E943D0B08959091D8
:1016C00009028095892380930902282F2770211110
:1016D0000DC0891759F09091680292FF07C0869556
:1016E000869586950E94A2060E94590B08959091B6
:1016F000680292FB222720F9281769F080FB92F9F3
:101700009093680280916702909168020E94C50BD5
:1017100082E00E945F0B089580916802002482FF9E
:101720000394802D0E94770B089581E00E94770B2F
:10173000089580E00E94770B08956FEF7FEF80E0BF
:1017400090E00E941D1F089580E090E00E94E91E35
:101750009C0181E0253E3E4F09F080E0089582E043
:1017600090E00E94E11E089583E090E00E94E11E57
:1017700090E00895682F83E090E00E94FF1E089596
:1017800084E090E00E94E91E0895BC0184E090E0AE
:101790000E941D1F0895AB01BC018FE090E00E94E4
:1017A000111F0895AB01BC0183E190E00E94111F5D
:1017B000089560E070E0CB010E94D20B089560E0D4
:1017C00070E0CB010E94CB0B0E94D90B0895A8E0DA
:1017D000B0E0EDEEFBE00C94901E65EE7EEF80E055
:1017E00090E00E941D1F60E082E090E00E94FF1EDA
:1017F00081E090E090939F0180939E010E94BA0B3C
:1018000060E074E184E090E00E941D1F60E086E0EB
:1018100090E00E94FF1E60E087E090E00E94FF1EC3
:1018200040E050E0BA0188E090E00E94111F60E0C3
:1018300083E290E00E94FF1E60E08CE090E00E9456
:10184000FF1E60E08DE090E00E94FF1E19821A8268
:101850001B821C821D821E821F82188648E050E077
:1018600067E170E0CE0101960E94EF1E40E050E07B
:10187000BA018FE190E00E94111F0E94DF0B2896B1
:10188000E2E00C94AC1E0E94E70B0895682F8EE0F6
:1018900090E00E94FF1E0895A6E0B0E0E2E5FCE0C3
:1018A0000C948E1E0E9481178C01809136029091BB
:1018B00037028017910779F019821A820E948117E6
:1018C000BC0149815A8180E090E00E94C7021093D8
:1018D0003702009336022696E4E00C94AA1E0E947A
:1018E0008D1760933F027093400280934102909362
:1018F000420260933B0270933C0280933D029093BE
:101900003E020895089508950E94820C0895089556
:101910000E94870C0E94840C089508950E948D0CEB
:10192000089508950E94910C0E948E0C08958AE5F6
:101930009FE00E94BA100E94830C0E94880C0895B8
:1019400081E0089581E008950E94A00C0895089513
:10195000089508950E94A70C0E94A80C0E94A90C4B
:1019600008950E94A40B811102C00E94430C0E94A2
:10197000AF0B809343020E94C00B90936802809348
:1019800067020E94B40B0E94560680919C019091C0
:101990009D010E94770608950E9478170E940E10FC
:1019A0000E94B10C0E94A1020E94920C0895A6E030
:1019B000B0E0EDEDFCE00C94881E0E94A20C8111B9
:1019C0000AC00E944C0C0E944F130E94AE02269641
:1019D000EAE00C94A41E0E9424101091380280E0CA
:1019E0000E94760F18130EC01091390281E00E94F8
:1019F000760F181307C010913A0282E00E94760F0A
:101A00001817F9F28091430281FD0E947C0F0E9419
:101A1000A40CC82E88E3A82E82E0B82E00E0802F08
:101A20000E94760F182FF50191915F01891739F106
:101A3000D82ED926F12CEE24E3948D2D8E218115FC
:101A4000B9F0C114A9F0F9820A830E9481179C831E
:101A50008B8381E08D8391E0812F8E21811101C0E4
:101A600090E049815A816B817C818D810E94C702FF
:101A7000F394EE0CF3E0FF12E0CFF50112930F5F49
:101A8000033069F60E946F0C9ECF1F93CF93DF93B4
:101A90000E946A0EEC01811522E5920708F05DC0F4
:101AA000811540E5940708F0DBC0803E910528F5DC
:101AB0008D3C910508F0ACC0883A910578F4853AE0
:101AC000910508F0A2C08130910509F441C0049746
:101AD000813A9105E8F1C0E0D0E03AC0885A910916
:101AE0004B97C8F7C85AD0E0CC0FDD1FC05BDE4F64
:101AF0000990D881C02DD4642BC0811550E495077E
:101B0000F8F4C11580E2D80708F0C0C0C83ED1057E
:101B1000F8F0CE019A9581159F41E8F68D2F0E942D
:101B20000B0F182FCE0199270E946A0E212F30E04B
:101B3000322F2227E901CC27DF71C82BD92B08C00F
:101B400099270E946A0ECC27DF70C82BD92BD06A48
:101B5000CE01DF91CF911F910895803842E594071F
:101B6000C8F5803652E5950708F05BC0C03482E5C1
:101B7000D807D0F4C03292E5D90708F04BC08C2FBB
:101B80008695869520E2829FC0011124C37021E0D2
:101B900030E0A90102C0440F551FCA95E2F7EA01DF
:101BA000C82BD92BDD68D4CF8C2F8695869587706E
:101BB00050E2859FC0011124C37021E030E0A901EB
:101BC00002C0440F551FCA95E2F7EA01C82BD92B72
:101BD000DC68BECF803C52E5950758F48F71C03A5F
:101BE000D245A0F590E0982F8827EC01C46FD06A09
:101BF000AFCF805C9245809708F06DCFDC2FCC276B
:101C0000CC27DF71C06FD06AA3CFA497D064A0CFD8
:101C1000D0659ECFCF71D0E0DC2FCC27C16FD06ACA
:101C200097CF86958695877020E2829FC001112408
:101C3000C37021E030E0A90102C0440F551FCA95CE
:101C4000E2F7EA01C82BD92BDA6882CF0E940B0F8A
:101C5000C82FD0E0DC2FCC27CC27DF71D06278CF23
:101C60008F710E940B0F53E0CC0FDD1F5A95E1F7E7
:101C7000CC27DF70282F30E084FF04C050E1859F1F
:101C800090011124C22BD32BD06962CF8D2F8F717D
:101C90000E940B0F182FCE0199270E946A0E212F48
:101CA00030E0322F222722273F71282B392BE901E0
:101CB000D5CF462F672F733028F4433018F40E9495
:101CC0005601089580E090E008950E94590E0E9408
:101CD000450D08959C01803E910509F448C0D8F453
:101CE0008133910509F47DC048F48932910509F4E6
:101CF0006DC08A9709F47CC0C901089589339105A4
:101D000051F18238910539F1C597B1F78091670299
:101D100085FFF2CF29C0843E910509F447C048F4FD
:101D2000823E910599F1833E9105A9F121EE30E0C3
:101D3000E3CF863E910509F444C0873E9105E1F664
:101D40008091670283FD61C09091680291FF2BC072
:101D500024EE30E0D1CF809167028370811152C0B0
:101D60008091680283FFC8CF29E230E0C5CF80911F
:101D7000670280FD33C09091680290FFBDCF23EED3
:101D800030E084FFB9CF20E030E0B6CF8091670229
:101D900082FDF5CFB1CF8091670282FD30C0909176
:101DA000680290FD2FC084FFA7CFEDCF809168021D
:101DB00081FFA2CF8091670227EE30E084FDE3CF60
:101DC0009BCF8091670283FDF7CF96CF809167020A
:101DD00085FD1EC08091680283FF8ECF29E330E02D
:101DE0008BCF8091670286FF87CF2AE230E084CFD5
:101DF0008091670286FF80CF21E330E07DCF22EE25
:101E000030E07ACF20EE30E077CF26EE30E074CFAE
:101E100025E330E071CF9091670292FF10C041E05E
:101E2000282F2471243009F040E031E0282F287158
:101E3000283009F030E0431711F02CE0822793FF9F
:101E400010C041E0282F2471243109F040E031E036
:101E5000282F2871283109F030E0431711F02CE0C9
:101E600082273091680230FF10C051E0282F217185
:101E7000213009F050E041E0282F2871283009F086
:101E800040E0541711F029E0822731FF10C041E0F3
:101E9000282F2171213109F040E031E0282F2871ED
:101EA000283109F030E0431711F029E0822794FD32
:101EB000877E089580E00895CF939C01FB01805EAA
:101EC0009245C1E0809738F4C581C11104C0822FCA
:101ED0008F710E94E6018C2FCF91089508950E9482
:101EE0006E0F089508950E94720F0895E82FF0E094
:101EF000E459FD4F80810895089580EA8A95F1F7AD
:101F0000089500C008950E947D0F0895F894E82F69
:101F1000E295EF70F0E041A18F7021E030E0B9016F
:101F200002C0660F771F8A95E2F7CB01962F909536
:101F3000942391A392A1892B82A37894089586EC8F
:101F40000E94860F87E90E94860F86E60E94860F10
:101F500081E90E94860F80E90E94860F84E90E9431
:101F6000860F0895A0E0B0E0E8EBFFE00C948A1E35
:101F7000EC01D62E062F10E0C80187579E4F7C013A
:101F8000FC0180818F3F09F444C0F894E82FE2956A
:101F9000EF70F0E091A18F7021E030E001C0220FDE
:101FA0008A95EAF7892F822B81A382A12095282385
:101FB00022A378940E94810FA6E8B1E091E0C12CA1
:101FC0008D918F3F79F0E82FE295EF70E05EF0E0C1
:101FD000208130E08F7002C0359527958A95E2F711
:101FE000892F20FD80E0C82A990FF1E0A938BF07AA
:101FF00039F7F70180818F3F11F00E94860F61E071
:10200000C11001C060E08D2D0E94830FC00FD11F51
:10201000C882CDB7DEB7E8E00C94A61E0E949F0FE1
:1020200083E0ECE6F2E0DF01982F1D929A95E9F744
:10203000E9E6F2E0DF011D928A95E9F783E00E946C
:1020400062100E946F0F0895A3E0B0E0EAE2F0E1B1
:102050000C948E1E8E010F5F1F4F83E0F8011192CA
:102060008A95E9F760E0C8010E94B20F61E0C801FB
:102070000E94B20F62E0C8010E94B20F43E050E03C
:10208000B80189E692E00E94CB1E21E0892B81F401
:1020900020E043E06CE672E089E692E00E94631083
:1020A000182F0E94730F812F2396E4E00C94AA1E30
:1020B00089819A81AB818093690290936A02A0938F
:1020C0006B02E7CF0895A0E0B0E0E9E6F0E10C9400
:1020D0008A1ED82EE92EF62ED72F042FC22F2115B7
:1020E00079F081E0809346020E9481179093450227
:1020F0008093440280E0CDB7DEB7E8E00C94A61EE2
:10210000C0904602C114B1F38091440290914502FF
:102110000E941017059770F310E0A8016D2D7E2D19
:102120008F2D9D2F0E94CB1E892B41F0A8016D2D74
:102130007E2D8F2D9D2F0E94D81ECC2D10924602F1
:102140008C2FD9CF0E94D70C08950E941A170E9495
:1021500023190E94970C0E943D190E94CC0C0E94EA
:102160004A190E944F190E94A2100E9469190E94E8
:10217000AA0CF7CF90938D0180938C010895CF9393
:10218000DF93EB0186319C4719F50E94760A9D8109
:102190009115A1F08A7A91E0811101C090E09093AD
:1021A0004702811549F085E30E940F160E942E0B0D
:1021B00080E0DF91CF91089589E2F6CF80914702C8
:1021C000811521F085E30E942916F0CF89E2FBCF2B
:1021D00081E0EFCFCF93DF93EC01FB018581811587
:1021E00009F4CFC09E0130572332310508F0AFC04B
:1021F0000E94C00B9093680280936702FE01E15039
:10220000F047E232F10520F4EF5BF04E0C947A1EB9
:102210008091670281608093670290C0809168021C
:102220008860809368028AC0809167028260F3CFE1
:10223000809167028460EFCF809167028860EBCF66
:10224000809168028160EDCF809168028260E9CF61
:10225000809167028061DFCF809167028062DBCF6F
:10226000809167028064D7CF0E9400068091670248
:102270008068D1CF809167028C60CDCF8091680259
:102280008360CFCF809167028E7FC5CF8091680237
:10229000877FC7CF809167028D7FBDCF8091670216
:1022A0008B7FB9CF80916702877FB5CF809168021D
:1022B0008E7FB7CF809168028D7FB3CF8091670208
:1022C0008F7EA9CF809167028F7DA5CF8091670215
:1022D0008F7BA1CF0E940006809167028F779BCFF2
:1022E00080916702837F97CF809168028C7F99CF1E
:1022F00080916702992782FF939590FB82F990FB6A
:1023000083F989CF80916802982F909590FB80F98E
:1023100090FB81F986CF90916702892F8F7B96FF82
:10232000806479CF0E94000690916702892F97FB05
:1023300087F9805870CF81E00E94460C8091670237
:10234000909168020E94C50B0E94000680E0DF9118
:10235000CF91089580E0F0CF90916702892F8F7E12
:1023600094FF806158CF90916702892F8E7F90FFF4
:10237000816051CF90916802892F877F93FF886099
:1023800050CF81E0E4CF282F35EB2303C001112487
:1023900097FF04C080589109892F089580589F4F56
:1023A000FBCF80914E0280FF0DC06091090170E06B
:1023B000660F771F60387105B0F561157105A9F1D9
:1023C000862F089581FF07C06091090184E0689F0E
:1023D000B0011124EFCF82FF04C06091090188E0B1
:1023E000F6CF90914D029115D9F02091080180917E
:1023F0000901682F70E0921730F043E0660F771FF5
:102400004A95E1F7D7CF899FC001112433E0880FA7
:10241000991F3A95E1F7622F70E00E94661ECACFBD
:1024200068E070E0CDCF8FE7089581E00895809156
:102430004E0280FF0CC06091050170E075956795B4
:10244000759567956115710549F1862F089581FF8E
:1024500006C06091050170E075956795F3CF6091B6
:10246000050182FD0BC090914C029115A1F0609185
:10247000040180910501961738F0682F70E06038EC
:10248000710500F38FE70895899FC001112470E062
:102490000E94661EF4CF61E070E0D7CF81E008951E
:1024A000E3E3E80FE331E0F5F0E0ED59F04E0C9492
:1024B0007A1E0E94D11181958093520208950E9444
:1024C000D111FACF0E94D1118195809351020895C4
:1024D0000E94D111FACF0E941712809353020895DF
:1024E0000E9417128195F9CF0E941712819580934F
:1024F000540208950E941712FACF815D990B21E0D2
:1025000030E001C0220F8A95EAF780915002822BB9
:1025100080935002089580914E02816080934E0214
:10252000089580914E028260F9CF80914E028460BE
:10253000F5CF409151028D3C59F48091520287FFB2
:102540000DC010925202411559F410924D0208C06C
:102550008E3C81F48091520218169CF3411581F053
:102560008091530290915402892B811159C010928D
:102570004C0208958F3C41F447FFF0CF1092510276
:10258000809152028115E0CF803D19F41416B4F306
:10259000E5CF90915302893D29F41916FCF610926B
:1025A0005302DCCF8A3D19F497FFD8CFF8CF909132
:1025B00054028B3D29F497FFD1CF10925402CECF15
:1025C0008C3D19F41916CCF3C9CF9FE2980F9830BF
:1025D00090F4815D990B21E030E0B90102C0660FF3
:1025E000771F8A95E2F7CB0180959091500289235D
:1025F00080935002B3CF8D3D31F480914E028E7F97
:1026000080934E02ABCF8E3D21F480914E028D7FA0
:10261000F7CF8F3D09F0A2CF80914E028B7FF0CF94
:1026200008950E9481172091510230915202232B6C
:10263000211521F080934A0290934B02209153027E
:1026400030915402232B211521F08093480290935E
:1026500049028FE492E00E940315089586E0EFE4BA
:10266000F2E0DF011D928A95E9F710924D02109277
:102670004C0210924E020895FC01828181110DC01E
:10268000838181110AC08481811107C081E0958115
:10269000911101C080E08170089581E0FCCFA6E037
:1026A000B0E0E5E5F3E10C948A1E86E0EFE4F2E0A9
:1026B0009E012F5F3F4FD90101900D928A95E1F75E
:1026C0001092510210925202109253021092540230
:1026D0008B819C81892B7901811589F080914A0237
:1026E00090914B020E9410176C0180914D02811550
:1026F000B9F190910A019C151D0408F43EC08D812A
:102700009E81892B811591F0809148029091490218
:102710000E9410178C0180914C02811509F45FC052
:10272000909106019017110608F467C0B7018FE475
:1027300092E00E945D16811105C08FE492E00E9434
:102740003C1381110E94111386E0F701AFE4B2E05F
:1027500001900D928A95E1F72696E8E00C94A61E6A
:1027600020910B019AE0299F900111242C153D0521
:1027700030F68F5F80934D0202C08F3FD1F7DB8030
:10278000D11459F00E94D11191E01D140CF09FEF6B
:10279000899F802D112480935102DC80D11459F03F
:1027A0000E94D11191E01D140CF09FEF899F802DA4
:1027B00011248093520280915102811509F49FCF18
:1027C000D0905202D11409F49ACF0E94C311809381
:1027D00051028D2D0E94C3118093520290CF2091FF
:1027E00007019AE0299F900111242017310708F072
:1027F0009DCF8F5F80934C0202C08F3FD1F71D8128
:10280000111559F00E94171291E011160CF09FEF6C
:10281000899F802D1124809353021E81111559F038
:102820000E94171291E011160CF09FEF899F802DE6
:1028300011248093540280915302811509F476CFBC
:1028400010915402111509F471CF0E94C3118093A5
:102850005302812F0E94C3118093540267CF0F93BC
:102860001F93CF93DF93C42FD22FFC018581811555
:10287000C9F0409357020E948117909356028093AB
:10288000550280E28C0F883040F4C77081E001C0AF
:10289000880FCA95EAF70E94A803DF91CF911F9194
:1028A0000F91089510915702141333C0809155026F
:1028B000909156020E941017883C910550F5C0E295
:1028C000CD0F1D17C1F080E2810F883040F41770E2
:1028D00081E001C0880F1A95EAF70E94AF03C83063
:1028E00050F491E08D2F877001C0990F8A95EAF717
:1028F000892F0E94A803802F0E949F03C83068F68A
:10290000D77081E001C0880FDA95EAF70E94AF0323
:10291000C4CF80E28C0F883008F0BFCFC77081E051
:1029200001C0880FCA95EAF7F1CF0F93DB01FC01D4
:10293000E851FC47E730F10598F5EA58F04E0C9461
:102940007A1E06E221EE41EE6AE17CE7CD010E94AB
:102950002F1480E00F91089507E225EE45EE6BE11C
:102960007CE7F4CF06E221EE40EE68E17CE7EECFB3
:1029700007E225EE44EE69E17CE7E8CF06E221EECE
:1029800042EE6CE17CE7E2CF07E225EE46EE6DE138
:102990007CE7DCCF08E221E045EE6EE17CE7D6CFB4
:1029A00015968C9181111092570281E0D3CF9093AC
:1029B0005D0280935C020895E0915C02F0915D02FB
:1029C000309729F00190F081E02D0995089580E07D
:1029D0000895E0915C02F0915D02309721F0028051
:1029E000F381E02D09950895DC01E0915C02F091FE
:1029F0005D02309739F086E08C930480F581E02DFC
:102A0000CD0109950895DC01E0915C02F0915D0231
:102A1000309739F082E08C930680F781E02DCD016C
:102A200009950895A3E0B0E0E8E1F5E10C94901E6B
:102A30009C0180915A0290915B0282179307A1F04A
:102A400030935B0220935A02E0915C02F0915D02A8
:102A5000309751F083E089833B832A830084F1859A
:102A6000E02DCE01019609952396E2E00C94AC1E70
:102A7000A3E0B0E0EEE3F5E10C94901E9C018091A0
:102A800058029091590282179307A1F0309359028E
:102A900020935802E0915C02F0915D02309751F072
:102AA00084E089833B832A830084F185E02DCE0175
:102AB000019609952396E2E00C94AC1ECF93DF9328
:102AC000C0910201D091030122960E94CF1681305D
:102AD00081F48091670287FF0CC0C0910001D09102
:102AE000010122969EE180E0915028F4DF91CF9180
:102AF000089596E0F8CF29912115B1F38F5FF4CFB7
:102B0000CF93C82F811102C080E031C00E94CF1640
:102B1000813021F48091670287FD0EC0809102010F
:102B200090910301FC013296089621912C1709F12E
:102B3000E817F907D1F7E8CF8C2F8695869586950B
:102B4000C03F10F7E0910001F0910101E80FF11D85
:102B5000228130E0C77081E090E002C0880F991FA9
:102B6000CA95E2F72823392381E0232B69F2CF911C
:102B7000089581E0FCCF9C01FC0132968FEF90E03C
:102B80004191461751F08F3F19F4411101C0892F2F
:102B90009F5F9630A9F78F3F09F40895280F311DE4
:102BA00087FD3A95F901628308959C01FC013296F4
:102BB000285F3F4F8191861302C0DF011E92E2170A
:102BC000F307C1F70895FC01862F869586958695B3
:102BD000603F60F4E80FF11D677021E030E001C054
:102BE000220F6A95EAF78281822B82830895FC0185
:102BF000862F869586958695603F80F4E80FF11DB7
:102C0000677081E090E09C0102C0220F331F6A953B
:102C1000E2F7B90160958281682362830895CF93BA
:102C2000C82F0E94CF166C2F813061F4809167020B
:102C300087FF08C080910001909101010E94E31577
:102C4000CF91089580910201909103010E94BB15DC
:102C5000F7CFCF93C82F0E94CF166C2F813061F42D
:102C60008091670287FF08C0809100019091010167
:102C70000E94F715CF910895809102019091030170
:102C80000E94D515F7CF0E94CF16813079F480913C
:102C9000670287FF0BC0E0910001F09101013296BD
:102CA0008EE1DF011D928A95E9F70895E091020116
:102CB000F0910301329686E0F4CFDC01FB0111961E
:102CC0009C9111978181981322C012968C91129732
:102CD000811519F0928189131AC013968C9113975C
:102CE000811519F09381891312C015968C9115974F
:102CF000811519F0958189130AC014969C9191153C
:102D000021F081E02481291303C080E001C081E02B
:102D10008170089508950E948A1608958F5F8093A8
:102D20000F0160910C0170910D0180910E01909145
:102D30000F010E948B16089583E080930F0160912C
:102D40000C0170910D0180910E0190910F010E9474
:102D50008B1608950E948E16089581E080930F01CE
:102D600060910C0170910D0180910E0190910F0105
:102D70000E948B1608950E94AD16089591E081116E
:102D800001C090E090930E0160910C0170910D01D3
:102D900080910E0190910F010E948B1608958091F1
:102DA0000E01089580930D0160910C0170910D0149
:102DB00080910E0190910F010E948B1608958091D1
:102DC0000D01089580930C0160910C0170910D012B
:102DD00080910E0190910F010E948B1608958091B1
:102DE0000C010895089508950E94F316089508951A
:102DF00008950E94F2160895CF930E94F7160E943C
:102E000024100E94F816C0E08C2F0E94760F8111CA
:102E100005C0CF5FC330C1F7CF91089581E0FCCFEB
:102E2000CF93DF93EC010E9481178C1B9D0BDF91E8
:102E3000CF91089585B7806885BF85B7806885BFC5
:102E400008951F921FB61F9211248F939F93AF93E3
:102E5000BF9380915E02811113C080916F029091A7
:102E60007002A0917102B09172024196A11DB11D34
:102E700080936F0290937002A0937102B0937202DC
:102E8000BF91AF919F918F911F901FBE1F9018957A
:102E900080917702843031F10E94810210925E02AB
:102EA00088E190E020E40FB6F894A8958093600044
:102EB0000FBE2093600083B7817F846083BF83B798
:102EC000816083BF7894889583B78E7F83BF0FB668
:102ED000F894A895809160008861809360001092BA
:102EE00060000FBE08950E9400060E9488020895A7
:102EF00082E084BD93E095BD9AEF97BD80936E000C
:102F000008952FB7F89480916F0290917002A0916C
:102F10007102B09172022FBF08952FB7F89460919B
:102F20006F027091700280917102909172022FBFB6
:102F3000089578941F921FB61F9211248F939F9328
:102F4000AF93BF9380916F0290917002A091710234
:102F5000B09172020196A11DB11D80936F029093F2
:102F60007002A0937102B0937202BF91AF919F91D2
:102F70008F911F901FBE1F90189587E797E790933A
:102F800001088093000888E19AE00FB6F894A895AC
:102F9000809360000FBE90936000FFCF88E19AE0BD
:102FA0000FB6F894A895809360000FBE90936000D0
:102FB000FFCF282FCB01BA01309177023430D9F4FA
:102FC0002F702093E9002FEF3091E80035FD06C007
:102FD00035ED3A95F1F700002A95B1F72091E80018
:102FE00025FF09C040E050E00E94E0198091E80010
:102FF0008E778093E8000895BC0143E050E082E0C2
:103000000E94D9170895BC0146E050E082E00E947A
:10301000D9170895BC0140E250E082E00E94D91720
:103020000895CF93DF93D82FC92F0E94CF1648E081
:1030300050E06D2F7C2F81E00E94D91788E0ED2FA2
:10304000FC2FAFE5B2E001900D928A95E1F7DF9198
:10305000CF91089580917602811109C00E94691B69
:103060000E94C61B8091E20084608093E200089574
:103070001092760208950E94AD1681E00E94BE165D
:1030800008956091730281E0611101C080E00E94A7
:103090009C1608959091770281E0943009F080E0C9
:1030A000609173020E94AA16089542E061EC81E0EB
:1030B0000E94E51A42E261EC82E00E94E51A9091DA
:1030C000770281E0943009F080E0609173020E9401
:1030D0008E16089580917902893089F148F4823002
:1030E00009F4A0C0833009F45AC0813041F008953A
:1030F0008A3009F487C08B3009F46CC00895809140
:103100007802813A09F04AC08091E800877F809375
:10311000E80080917C0290917D02892B61F060E053
:1031200080E090E070E00E94301A8091E8008B7798
:103130008093E800089568E08FE592E0F3CF8091F6
:103140007802813259F580917C0290917D0202973C
:1031500028F58091E800877F8093E8008091E8005F
:1031600082FF18C09091F3008091F200029731F431
:103170008091F100813011F0863021F48091F100CE
:103180000E94D2168091E8008B778093E8000E941D
:10319000191B0895809177028111E0CF08958091E5
:1031A0007802813AD9F780917C0290917D02892B37
:1031B000A9F78091E800877F8093E8008091E8007C
:1031C00080FFFCCF0E94CF168093F1008091E80031
:1031D0008E77DBCF80917802813201F780917C027B
:1031E00090917D02892BD1F68091E800877F8093B2
:1031F000E8000E94191B80917A020E94BE160E946C
:103200000006089580917802813241F68091E800AD
:10321000877F8093E8000E94191B80917B020E94A7
:10322000E216089580917802813A09F0B7CF809133
:10323000E800877F8093E8008091E80080FFFCCF62
:103240000E94EF16C1CF84B7877F84BF0FB6F89472
:10325000A895809160008861809360001092600062
:103260000FBE80E890E00FB6F894809361009093D1
:1032700061000FBE0E94BB1608950E94691B0E9448
:10328000C61BE2EEF0E080818460808378940E9427
:103290004C1E089580E191E00E94D714089580911A
:1032A0007702853031F480917702853019F00E94E1
:1032B000731708950E9448170E94FC16811599F310
:1032C00080917502811579F30E94CA190E94000647
:1032D000EACF08959A0140917E0250917F020E94A8
:1032E00072190895FC01D9018F2F99278330910518
:1032F000C1F068F48130910509F447C0029761F488
:103300008BE390E026EF30E02D933C9308958132DB
:103310009105E1F0829749F180E090E020E030E013
:10332000F3CFCF019927E13059F08230910559F060
:10333000E2EFF0E0892B81F7849190E09F01E4CFE8
:10334000E2EDF0E0F9CFEEEBF0E0F6CF89E090E0CF
:1033500028E031E061157105B9F289E090E021E2E1
:1033600031E06130710581F2D7CF84E490E029EF3C
:1033700031E06115710541F286EB90E023E431E024
:103380006130710509F4C0CFC7CF82E190E021E33D
:1033900031E0BACF80E189BD82E189BD09B400FE88
:1033A000FDCF8091D8008F7D8093D8008091E00080
:1033B00082608093E0008091E00081FDFCCF089561
:1033C000AF92BF92CF92DF92EF92FF920F931F9333
:1033D000CF936C018B017A010E94381BC82F811199
:1033E00023C0E114F10439F0F70180819181081BB9
:1033F000190BC80ED91EA12CB12C01151105A1F075
:103400008091E80085FD21C08091E8008E7780934F
:10341000E800E114F10499F0F701808191818A0DAF
:103420009B1D91838083C5E08C2FCF911F910F91BD
:10343000FF90EF90DF90CF90BF90AF9008950E94E3
:10344000381B8115E9F2C82FEFCFF60181916F018A
:103450008093F10001501109FFEFAF1ABF0ACDCFE1
:10346000FC019B0180917E0290917F028617970755
:1034700018F0672B61F0C90140E0009771F4411129
:103480000CC08091E80082FF35C080E008958091F3
:10349000E8008E778093E800EECF20917702211527
:1034A000A9F12530A9F12091E80023FD2DC020913C
:1034B000E80022FDE6CF2091E80020FFDECF30912A
:1034C000F3002091F200009719F02830310558F0F0
:1034D00041E02830310509F040E02091E8002E77E6
:1034E0002093E800CACF41914093F10001972F5FEC
:1034F0003F4FE9CF80917702811541F0853041F04F
:103500008091E80083FFBDCF81E0089582E00895B7
:1035100083E00895FC019B0180917E0290917F02DF
:103520008617970718F0672B61F0C90140E00097F4
:1035300071F441110CC08091E80082FF36C080E038
:1035400008958091E8008E778093E800EECF209177
:1035500077022115B1F12530B1F12091E80023FD6A
:103560002EC02091E80022FDE6CF2091E80020FF48
:10357000DECF3091F3002091F200009719F028304F
:10358000310558F041E02830310509F040E0209144
:10359000E8002E772093E800CACF44914093F100D1
:1035A000319601972F5F3F4FE8CF809177028115C9
:1035B00041F0853041F08091E80083FFBCCF81E08D
:1035C000089582E0089583E00895982F973028F0B9
:1035D0008F708093E90081E008959093E900242F93
:1035E000762F50E0981731F07091EC002091ED00AB
:1035F0005091F00021FD02C09F5FE8CF3091EB00B9
:103600003E7F3093EB003091ED003D7F3093ED0035
:103610003091EB0031603093EB007093EC0020931D
:10362000ED005093F0002091EE0027FDE5CF80E003
:1036300008958091780287FF13C08091E80082FF8F
:1036400006C08091E8008B778093E8000895809110
:1036500077028111F2CF0895809177028115D9F315
:103660008091E80080FFF8CF8091E8008E77ECCF62
:103670002091E4003091E50095E6A9012091EC004D
:10368000822F817020FF06C08091E80080FF06C075
:1036900080E008952091E80022FD1AC08091770211
:1036A000811589F0853089F08091EB0085FD0FC090
:1036B0002091E4003091E50042175307F9F29A9502
:1036C000E1F684E0089582E0089583E0089581E0C2
:1036D00008950E94D81B0E94E01BE0EEF0E080817C
:1036E00081608083E8EDF0E080818F77808319BC72
:1036F000A7EDB0E08C918E7F8C9380818F7E80834C
:103700001092760208950F931F93CF93DF930E9438
:10371000D81B0E94E01BC8EDD0E088818F7788839A
:1037200088818068888388818F7D888319BC109206
:10373000770210927302109275021092740200EEDA
:1037400010E0F80180818B7F80838881816088838D
:1037500042E060E080E00E94E51AE1EEF0E0808166
:103760008E7F8083E2EEF0E08081816080838081C3
:1037700088608083F80180818E7F8083888180616A
:103780008883DF91CF911F910F910895E8EDF0E0CC
:1037900080818F7E8083E7EDF0E08081816080838F
:1037A00084E082BF81E0809376020E94831B0895AB
:1037B000E8EDF0E080818E7F80831092E200089532
:1037C0001092DA001092E10008951F920F920FB646
:1037D0000F9211242F933F934F935F936F937F9397
:1037E0008F939F93AF93BF93EF93FF938091E100EB
:1037F00082FF0BC08091E20082FF07C08091E10050
:103800008B7F8093E1000E944B1E8091DA0080FF45
:1038100019C08091D80080FF15C08091DA008E7F9A
:103820008093DA008091D90080FF94C080E189BD47
:1038300082E189BD09B400FEFDCF81E0809377026B
:103840000E942A188091E10080FF19C08091E20057
:1038500080FF15C08091E2008E7F8093E20080910E
:10386000E20080618093E2008091D80080628093C2
:10387000D80019BC85E0809377020E94411880919E
:10388000E10084FF29C08091E20084FF25C080E12F
:1038900089BD82E189BD09B400FEFDCF8091D800C9
:1038A0008F7D8093D8008091E1008F7E8093E1002E
:1038B0008091E2008F7E8093E2008091E20081603F
:1038C0008093E20080917302811509F449C084E07D
:1038D000809377020E944A188091E10083FF29C0FB
:1038E0008091E20083FF25C08091E100877F809373
:1038F000E10082E080937702109273028091E100F0
:103900008E7F8093E1008091E2008E7F8093E200C1
:103910008091E20080618093E20042E060E080E01C
:103920000E94E51A8091F00088608093F0000E9468
:103930003B18FF91EF91BF91AF919F918F917F9134
:103940006F915F914F913F912F910F900FBE0F900C
:103950001F90189519BC109277020E94381872CFE8
:103960008091E30087FF02C083E0B2CF81E0B0CF57
:103970001F920F920FB60F921124EF92FF920F93A6
:103980001F932F933F934F935F936F937F938F93E7
:103990009F93AF93BF93CF93EF93FF9309EE10E004
:1039A000F8018081C091EC008F70C795CC27C79536
:1039B000C82B108280EFE82EF12CF7018081877FE1
:1039C000808378940E94031DF8011082F7018081A2
:1039D00088608083CF70F801C083FF91EF91CF9111
:1039E000BF91AF919F918F917F916F915F914F9117
:1039F0003F912F911F910F91FF90EF900F900FBE6D
:103A00000F901F901895AAE2B0E0E9E0FDE10C9458
:103A10008E1E88E792E0FC0101962091F100208340
:103A200022E080389207B9F70E946A188091E80076
:103A300083FF38C080917802909179029A3090F596
:103A4000E92FF0E0E358F04E0C947A1E803889F0AC
:103A5000823841F580917C028F70873018F5809311
:103A6000E9008091EB0085FB882780F91092E9003E
:103A700006C080917502880F90917402892B9091F5
:103A8000E800977F9093E8008093F1001092F10096
:103A90008091E8008E7723C0811116C080917A0250
:103AA000813011F18091E80083FF0AC08091E80025
:103AB000877F8093E8008091EB0080628093EB0029
:103AC000AA96E4E00C94AA1E823061F780917A02F3
:103AD000811589F01092E9008091E800877F80933A
:103AE000E8000E94191BDECF81E0933009F080E0EE
:103AF00080937502EFCF80917C028F702FEF280F9B
:103B0000263080F68093E9002091EB0020FFE2CF81
:103B1000933031F48091EB0080628093EB00DACF38
:103B20009091EB0090619093EB0021E030E0A901CF
:103B300002C0440F551F8A95E2F74093EA001092A5
:103B4000EA008091EB008860E8CF8111ABCF109143
:103B50007A021F778091E3008078812B8093E300C5
:103B60008091E800877F8093E8000E94191B809174
:103B7000E80080FFFCCF8091E30080688093E30041
:103B800083E0111101C082E0809377028BCF8058CF
:103B9000823008F087CF80917A0290917B028C3D31
:103BA00053E0950799F583E08A838AE289834FB7CA
:103BB000F894DE01139620E03EE051E2E32FF0E0BE
:103BC00050935700849120FF03C082958F703F5F10
:103BD0008F708A30C8F0895C90E08D939D932F5F41
:103BE000243161F74FBF8091E800877F8093E80020
:103BF0006AE270E0CE0101960E94301A8091E800DE
:103C00008B778093E8004ECF805DE6CF60917C0299
:103C100070917D02AE014F5F5F4F0E946A198C0167
:103C2000892B09F43FCF8091E800877F8093E800DB
:103C3000B80189819A810E948A1AE0CF803809F000
:103C400031CF8091E800877F8093E80080917302F4
:103C50008093F1001DCF811125CF90917A0292308F
:103C600008F020CF8091E800877F8093E800909350
:103C700073020E94191B80917302811531F084E058
:103C8000809377020E9455180DCF8091E30087FD45
:103C9000F6CF81E0F5CF0895CF938091770281151B
:103CA00099F08091E900C091EC008F70C795CC2706
:103CB000C795C82B1092E9008091E80083FD0E940F
:103CC000031DCF70C093E900CF91089597FB072E95
:103CD00016F4009407D077FD09D00E94B71E07FCA8
:103CE00005D03EF4909581959F4F0895709561950C
:103CF0007F4F0895EE0FFF1F0590F491E02D09947A
:103D00002F923F924F925F926F927F928F929F92EB
:103D1000AF92BF92CF92DF92EF92FF920F931F93D9
:103D2000CF93DF93CDB7DEB7CA1BDB0B0FB6F8948A
:103D3000DEBF0FBECDBF09942A88398848885F84CA
:103D40006E847D848C849B84AA84B984C884DF803B
:103D5000EE80FD800C811B81AA81B981CE0FD11D1F
:103D60000FB6F894DEBF0FBECDBFED010895AA1BBC
:103D7000BB1B51E107C0AA1FBB1FA617B70710F056
:103D8000A61BB70B881F991F5A95A9F78095909588
:103D9000BC01CD010895FB01DC0104C08D910190AF
:103DA000801921F441505040C8F7881B990B0895A1
:103DB000FB01DC0102C001900D9241505040D8F748
:103DC0000895F999FECF92BD81BDF89A992780B5E3
:103DD0000895A8E1B0E042E050E00C94251FDC011A
:103DE000A40FB51F4150504048F0CB01840F951FE0
:103DF0002E910E94001F41505040D0F70895262F69
:103E0000F999FECF92BD81BDF89A019700B40216D0
:103E100039F01FBA20BD0FB6F894FA9AF99A0FBE7E
:103E200008950396272F0E94001F0E94FF1E252F32
:103E30000E94001F242F0C94001F0196272F0E9420
:103E4000001F0C94FF1EDC01CB01FC01F999FECF91
:103E500006C0F2BDE1BDF89A319600B40D92415012
:103E60005040B8F70895F894FFCFF403F4033804F2
:103E700038049C04B90423042304BE043A054B050A
:103E80004B054211B3114A11141118114E111C1196
:103E900052115E112811AC112C11621130116611F2
:103EA0008B1134116A1192113A117011781120118D
:103EB000561124115A113E11741182119B11AA112D
:103EC0000E114611BA1159125F12621268127D1258
:103ED0007D127D127D127D127D127D127D126B127C
:103EE000701274127A128B1291129512B214B814C5
:103EF000A114AC14BE14C414CA14261D4C1D521DAA
:0E3F00004C1D521DA51DC71D521D1E1E2B1E41
:103F0E000C022C02280850011E0A140100000100A8
:103F1E00DF1611180A180318FC17E200E900EA0070
:103F2E00B500B600B700CD008301CC008A01920126
:103F3E0094012102230224022502260227022A02CC
:103F4E00B300B4006F0070009F01CB019F02A0026E
:103F5E00E200E900EA00B500B600B700CD0083012B
:103F6E00CC008A019201940121022302240225022F
:103F7E00260227022A02B300B4006F0070009F01D0
:0C3F8E00CB019F02A002919094C69766A0
:00000001FF
